:020000042001D9
:100000009721FF5F9381012A97020000938282016A
:100010007390523093021000638402007350107C7E
:100020009702000093824211739052301301000036
:1000300063140100138101CD732540F18142130344
:100040000040137101FF6385A2001A918502D5BF9C
:10005000970000009380C00763830000829073259F
:1000600040F181450146ED209300000063830000CC
:100070008290970200009382C20073905230032353
:100080000000F5BF000000008280A14673B3063077
:10009000914263C555001376350011CA230005004F
:1000A0000505FD15E347B0FE731003308280232061
:1000B00005001105F115E34EB0FC7310033082808A
:1000C000232003001103E34D73FE82800684970210
:1000D000FFDF938222F3638C02049702FFDF938297
:1000E00062F2F32740F1A14673B006300A8397030A
:1000F000FFDF938323318A9363037300D1376398BF
:1001000057021703FF5F1303E3EF9723FF5F938308
:10011000E39B630373006D371703FFE7130383EE5D
:100120009703FFE7938303EE63037300513FA280BD
:1001300082800000F322203473231034F323303400
:10014000D5BF411122C6000801003244410182801E
:1001500006849721FF5F9381E114930200006311ED
:10016000550E97820000938262DE1703FF5F130330
:1001700063E99723FF5F93836395638C6200635AFF
:10018000730003A5020091022320A3001103E34A98
:1001900073FE971200009382E2EA1703FFE713034E
:1001A00063E69703FFE79383E3E5638C6200635A9A
:1001B000730003A5020091022320A3001103E34A68
:1001C00073FE0F100000971200009382A2E717033E
:1001D000FF5F130323E39703FF5F9383A3E2638C23
:1001E0006200635A730003A5020091022320A3005A
:1001F0001103E34A73FE0F1000001723FF5F130380
:10020000E38C9383C18C6357730023200300110395
:10021000E34D73FE1722FF5F1302428B11C2029659
:10022000173500001305C512EF30600EEF30601572
:10023000173500001305853FEF30600DEF30803D2E
:100240000937FD5673B0463073B04634F32710308B
:10025000372704007D8F09C773B0363073B026305E
:10026000370704007D8F19C373B006184167130761
:100270008702F98F89CBF32700300967D98F7390F4
:10028000073073503000F327103037072000F98F04
:1002900099C7F327003093E707207390073005458F
:1002A0009705000093858522170600001306462255
:1002B0003120EF300007A28082808280411106C287
:1002C000F32240F1130300006385620073005010B5
:0C02D000F5BFEF00F05A9240410182801F
:0C02E000EC020120100301203C0301206F
:1002EC00411106C622C40008F16793850720B72781
:1002FC000080138587A3EF3000360100B240224402
:10030C0041018280011106CE22CC0010EF60C007A3
:10031C002326A4FE8327C4FE99C7B7270080138524
:10032C0007A9EF60200F0100F24062440561828052
:10033C00011106CE22CC0010EF6000052326A4FE8E
:10034C008325C4FEB7270080138507A9EF7010170B
:0A035C000100F24062440561828056
:100368006379633A2025640A000000000000000059
:100378001000000020000000300000000000000015
:100388000000000000000000000000000000000065
:100398000000000000000000000000000000000055
:1003A8000000000000000000000000000000000045
:1003B8000000000000000000000000000000000035
:1003C8000000000000000000000000000000000025
:1003D8000000000000000000000000000000000015
:1003E8000000000000000000000000000000000005
:1003F80000000000000000000000000000000000F5
:1004080000000000000000000000000000000000E4
:1004180000000000000000000000000000000000D4
:10042800000000000000000000000000232D302B19
:1004380020000000686C4C00656667454647000070
:100448003031323334353637383941424344454602
:1004580000000000303132333435363738396162C4
:1004680063646566000000005E2A0000742A0000CC
:10047800342A0000342A0000342A0000342A0000FC
:10048800742A0000342A0000342A0000342A0000AC
:10049800342A0000CA2B0000B22A00009C2B00005E
:1004A800342A0000342A0000FA2B0000342A000005
:1004B800B22A0000342A0000342A0000A42B0000CD
:1004C800D0040120000000006C6962676C6F7373D0
:1004D800000000000E390120B43A0120983A0120AA
:1004E8000000000000000000B03D0120E43D0120B4
:1004F80096390120703A01200C3B0120BE3B0120B7
:1005080000000000000000000000000000000000E3
:1005180000000000000000000000000000000000D3
:10052800703C01204238012000000000000000005B
:100538000000000000000000FC4F01206250012074
:10054800625001200E5001206250012062500120AB
:100558006250012020500120625001206250012089
:100568006250012032500120625001206250012067
:100578006250012062500120445001204450012063
:10058800445001204450012044500120445001208F
:10059800445001204450012044500120445001207F
:1005A800445001204450012044500120445001206F
:1005B8004450012044500120C4500120F65301202A
:1005C800DA530120000000000000000000000000D5
:1005D80000000000A6510120000000008653012001
:1005E800B0530120000000000000000000000000DF
:1005F80000000000000000000000000000000000F3
:10060800000000004A540120000000000000000023
:1006180000000000000000000000000066540120F7
:10062800D65401201C55012082550120F85501207F
:10063800125601202656012040560120545601200A
:10064800B6560120185701207857012098570120E5
:10065800DE5701200C5801202A5801204A58012051
:10066800445C0120000000000000000000000000C1
:10067800000000000000000000000000965D01205E
:1006880000000000585E0120A85E01200000000064
:1006980000000000285F0120F85E0120B25A012006
:1006A800505A012000000000000000000000000077
:1006B80000000000505F0120EC5F012088600120ED
:1006C800FC6001200100000020000000001BB700B2
:1006D80000366E01010000001F000000030000004A
:1006E8003F000000010000002000000000366E01FD
:1006F800006CDC02030000001F0000000200000084
:100708003F0000000100000010000000808D5B0029
:10071800001BB700000000001F00000003000000DD
:100728003F0000000100000010000000001BB7009F
:1007380000366E01010000001F00000002000000EA
:100748003F000000010000001000000000366E01AC
:10075800006CDC02030000001F0000000200000023
:100768001F0000000100000008000000808D5B00F1
:10077800001BB700000000001F000000030000007D
:100788001F0000000100000008000000001BB70067
:1007980000366E01010000001F000000020000008A
:1007A8001F000000010000000800000000366E0174
:1007B800006CDC02030000001F00000002000000C3
:1007C8000F0000000100000004000000808D5B00A5
:1007D800001BB700000000001F000000030000001D
:1007E8000F0000000100000004000000001BB7001B
:1007F80000366E01010000001F000000020000002A
:100808000F000000010000000400000000366E0127
:10081800006CDC02030000001F0000000200000062
:10082800070000000100000002000000808D5B004E
:10083800001BB700000000001F00000002000000BD
:100848000F0000000100000002000000001BB700BC
:1008580000366E01010000001F00000001000000CA
:100868000F000000010000000200000000366E01C9
:10087800006CDC02030000001F0000000100000003
:10088800070000000200000001000000808D5B00EE
:10089800001BB700000000001F000000010000005E
:1008A800070000000200000001000000001BB70064
:1008B80000366E01010000001F000000010000006A
:1008C80003000000020000000100000000366E0175
:1008D800006CDC02030000001F00000003000000A1
:1008E800FFFFFFFF0400000001000000808D5B0097
:1008F800001BB700000000001F00000003000000FC
:10090800000000000400000001000000001BB70008
:1009180000366E01010000001F0000000300000007
:10092800FFFFFFFF040000000100000000366E0119
:10093800006CDC02030000001F0000000200000041
:10094800FFFFFFFF0600000001000000808D5B0034
:10095800AAC2A2000000000023000000010000005D
:10096800020000000600000001000000AAC2A20068
:10097800001BB70000000000170000000300000083
:10098800FFFFFFFF0600000001000000001BB7008A
:100998000024F400010000002F0000000300000004
:1009A800FFFFFFFF06000000010000000024F40024
:1009B80080A81201010000001700000002000000DA
:1009C800FFFFFFFF060000000100000080A81201E1
:1009D80055854501020000002300000002000000C8
:1009E800FFFFFFFF0800000001000000808D5B0092
:1009F800001BB700000000001F00000003000000FB
:100A0800FFFFFFFF0800000001000000001BB70007
:100A180000366E01010000001F0000000200000007
:100A2800FFFFFFFF080000000100000000366E0114
:100A3800006CDC02030000001F0000000100000041
:100A4800FFFFFFFF0A00000001000000808D5B002F
:100A5800007C920000000000270000000300000056
:100A6800FFFFFFFF0A00000001000000007C920069
:100A7800001BB70000000000130000000200000087
:100A8800FFFFFFFF0A00000001000000001BB70085
:100A980000F8240101000000270000000200000007
:100AA800FFFFFFFF0A0000000100000000F824011A
:100AB80000366E0101000000130000000100000074
:100AC800FFFFFFFF0A0000000100000000366E0172
:100AD80000F04902030000002700000001000000A8
:100AE800FFFFFFFF0C00000001000000808D5B008D
:100AF80000127A00000000002F0000000300000030
:100B0800FFFFFFFF0C0000000100000000127A0048
:100B1800001BB700000000001700000002000000E2
:100B2800FFFFFFFF0C00000001000000001BB700E2
:100B38000024F400010000002F0000000200000063
:100B4800FFFFFFFF0C000000010000000024F4007C
:100B580000366E01010000001700000001000000CF
:100B6800FFFFFFFF0C0000000100000000366E01CF
:100B780080C3C901030000002F000000010000002D
:100B8800FFFFFFFF0C0000000100000080C3C90147
:100B98000048E801030000002F00000001000000E9
:100BA800FFFFFFFF0E00000001000000808D5B00CA
:100BB800B6A1680000000000370000000300000034
:100BC800FFFFFFFF0E00000001000000B7A1680052
:100BD800001BB700000000001B000000020000001E
:100BE800FFFFFFFF0E00000001000000001BB70020
:100BF8006D43D10001000000370000000200000032
:100C0800FFFFFFFF0E000000010000006E43D1004F
:100C180000366E01010000001B000000010000000A
:100C2800FFFFFFFF0E0000000100000000366E010C
:100C3800DB86A2010300000037000000010000006D
:100C4800FFFFFFFF1000000001000000808D5B0027
:100C5800001BB700000000001F0000000200000099
:100C6800FFFFFFFF1000000001000000001BB7009D
:100C780000366E01010000001F00000001000000A6
:100C8800FFFFFFFF1200000001000000808D5B00E5
:100C9800AAC2A20000000000230000000200000019
:100CA800FFFFFFFF1200000001000000ABC2A2001E
:100CB800001BB70000000000110000000100000048
:100CC800FFFFFFFF1200000001000000001BB7003B
:100CD80055854501010000002300000001000000C7
:100CE800FFFFFFFF1400000001000000808D5B0083
:100CF800007C9200000000002700000002000000B5
:100D0800FFFFFFFF1400000001000000007C9200BC
:100D1800001BB700000000001300000001000000E5
:100D2800FFFFFFFF1400000001000000001BB700D8
:100D380000F8240101000000270000000100000065
:100D4800FFFFFFFF1600000001000000808D5B0020
:100D5800E82A8500000000002B00000002000000C7
:100D6800FFFFFFFF1600000001000000E92A8500D0
:100D7800001BB70000000000150000000100000083
:100D8800FFFFFFFF1600000001000000001BB70076
:100D9800D1550A01010000002B00000001000000ED
:100DA800FFFFFFFF1800000001000000808D5B00BE
:100DB80000127A00000000002F000000020000006E
:100DC800FFFFFFFF180000000100000000127A007A
:100DD800001BB70000000000170000000100000021
:100DE800FFFFFFFF1800000001000000001BB70014
:100DF8000024F400010000002F00000001000000A2
:100E0800FFFFFFFF1A00000001000000808D5B005B
:100E180027AE700000000000330000000200000050
:100E2800FFFFFFFF1A0000000100000028AE70005D
:100E3800001BB700000000001900000001000000BE
:100E4800FFFFFFFF1A00000001000000001BB700B1
:100E58006658E100010000003300000001000000B6
:100E6800FFFFFFFF1C00000001000000808D5B00F9
:100E7800B6A1680000000000370000000200000072
:100E8800FFFFFFFF1C00000001000000B7A1680081
:100E9800001BB700000000001B000000010000005C
:100EA800FFFFFFFF1C00000001000000001BB7004F
:100EB8006D43D10001000000370000000100000070
:100EC800FFFFFFFF1E00000001000000808D5B0097
:100ED80000A86100000000003B00000002000000C4
:100EE800FFFFFFFF1E0000000100000000A86100D6
:100EF800001BB700000000001D00000001000000FA
:100F0800FFFFFFFF1E00000001000000001BB700EC
:100F18000050C300010000003B0000000100000079
:100F2800FFFFFFFF2000000001000000808D5B0034
:100F3800001BB700000000001F00000001000000B7
:100F4800FFFFFFFF20640120C46401209068012096
:100F580032710120B0710120C8710120E4710120B3
:100F680032720120167201204E7201208472012013
:100F78007274012038730120507301206C730120B2
:100F8800BA7301209E730120D67301200C740120CE
:100F98005C6E01201C6E0120A26E0120CC6E012027
:100FA800F86E01203E6F01207E6F0120BE6F012088
:100FB8000470012044700120A6700120F070012007
:100FC800F67201207E7401209E7401203A7B012074
:100FD800DA780120B67701201A790120707901208A
:100FE8009079012094760120B4760120D2760120F0
:100FF8000C770120447701207E770120E6770120D5
:101008003078012060780120AA78012000000000D3
:10101800001000807E610120026201207E620120B2
:10102800F2620120086A0120366A0120F07E012060
:041038000E7F012006
:10108000717106D722D50019232404FC232604FC01
:10109000232804FC232A04FCB70701209387473741
:1010A0009043D4439847232CC4F4232ED4F4232014
:1010B000E4F603D7C7002312E4F683C7E70023034F
:1010C000F4F6930774F6130710053A8681453E85BA
:1010D000EF00106F930784F52324F4FE930784F543
:1010E0003E85792851202320A4FE2322B4FE232606
:1010F00004FE05A0930684FB130784FC930784F584
:101100003686BA853E85092A8327C4FE85072326AD
:10111000F4FE0327C4FE89679387F770E3DCE7FCDE
:10112000A1202A86AE86032504FE832544FE3307CC
:10113000A6403A8833380601B387B640B3860741E4
:10114000B687232CE4FC232EF4FC832784FDBE8584
:10115000B707012013858736EF00107181473E8560
:10116000BA502A544D618280F32500B8732500B02F
:10117000732600B8E39AC5FE8280000000000000DC
:10118000832205000323450083238500032EC50029
:1011900041058D020D038D030D0E232055002322E2
:1011A0006500232475002326C5014105FD127D132A
:1011B000FD137D1E23205500232265002324750086
:1011C0002326C50141058D020D038D030D0E23203D
:1011D000550023226500232475002326C5014105FF
:1011E000FD127D13FD137D1E232055002322650073
:1011F000232475002326C50141058D020D038D03AF
:101200000D0E23205500232265002324750023267C
:10121000C501828013000000111122C226C44AC6F3
:101220004EC852CA56CC9441D8419C4503A8C5002B
:1012300097FEFE5F938E0EDD138F4E00138A8E0095
:10124000938ACE00856FC11F8322050003234500CA
:1012500083238500032EC50013F4F60F9374F70F54
:1012600013F9F70F9379F80F1204920412099209F7
:10127000B305E4018041B385E4018441B305E9018C
:1012800003A90500B385E90183A90500B3C2820063
:1012900033439300B3C32301334E3E019182118344
:1012A0009183135848003374F701B3F4F70133798D
:1012B000F801B3F9F601B30554018041B385540137
:1012C0008441B305590103A90500B385590183A9D8
:1012D0000500B3C2820033439300B3C32301334EEE
:1012E0003E01A1822183A1831358880033F4F701C2
:1012F000B374F80133F9F601B379F701B305D401FA
:101300008041B385D4018441B305D90103A9050007
:10131000B385D90183A90500B3C28200334393008A
:10132000B3C32301334E3E01A1822183A18313580D
:1013300088003374F801B3F4F6013379F701B3F997
:10134000F701B30544018041B38544018441B305ED
:10135000490103A90500B385490183A90500B3C26A
:10136000820033439300B3C32301334E3E01410552
:1013700013F4F20F9374F30F13F9F30F9379FE0F35
:101380001204920412099209B305E4019441B38551
:10139000E4019841B305E9019C41B385E90103A843
:1013A000050093D242001353430093D34300135ECE
:1013B0004E003374F301B3F4F3013379FE01B3F952
:1013C000F201B30554018041B38554018441B30552
:1013D000590103A90500B385590183A90500A18E10
:1013E000258FB3C727013348380193D282001353A6
:1013F000830093D38300135E8E0033F4F301B37440
:10140000FE0133F9F201B379F301B305D401804150
:10141000B385D4018441B305D90103A90500B3857F
:10142000D90183A90500A18E258FB3C727013348B1
:10143000380193D282001353830093D38300135E49
:101440008E003374FE01B3F4F2013379F301B3F982
:10145000F301B30544018041B38544018441B305E0
:10146000490103A90500B385490183A90500A18E9F
:10147000258FB3C727013348380183220500032392
:10148000450083238500032EC50013F4F60F9374E3
:10149000F70F13F9F70F9379F80F1204920412095A
:1014A0009209B305E4018041B385E4018441B305A9
:1014B000E90103A90500B385E90183A90500B3C2C9
:1014C000820033439300B3C32301334E3E01918224
:1014D00011839183135848003374F701B3F4F70173
:1014E0003379F801B3F9F601B30554018041B385AE
:1014F00054018441B305590103A90500B38559017D
:1015000083A90500B3C2820033439300B3C3230110
:10151000334E3E01A1822183A1831358880033F406
:10152000F701B374F80133F9F601B379F701B305A4
:10153000D4018041B385D4018441B305D90103A905
:101540000500B385D90183A90500B3C282003343E6
:101550009300B3C32301334E3E01A1822183A183B3
:10156000135888003374F801B3F4F6013379F701A6
:10157000B3F9F701B30544018041B38544018441C7
:10158000B305490103A90500B385490183A90500F5
:10159000B3C2820033439300B3C32301334E3E01F1
:1015A000410513F4F20F9374F30F13F9F30F9379CA
:1015B000FE0F1204920412099209B305E40194414A
:1015C000B385E4019841B305E9019C41B385E90184
:1015D00003A8050093D242001353430093D3430062
:1015E000135E4E003374F301B3F4F3013379FE015B
:1015F000B3F9F201B30554018041B385540184412C
:10160000B305590103A90500B385590183A9050054
:10161000A18E258FB3C727013348380193D28200AA
:101620001353830093D38300135E8E0033F4F301CE
:10163000B374FE0133F9F201B379F301B305D401B8
:101640008041B385D4018441B305D90103A90500C4
:10165000B385D90183A90500A18E258FB3C72701C2
:101660003348380193D282001353830093D383000D
:10167000135E8E003374FE01B3F4F2013379F3018B
:10168000B3F9F301B30544018041B38544018441BA
:10169000B305490103A90500B385490183A90500E4
:1016A000A18E258FB3C72701334838018322050057
:1016B0000323450083238500032EC50013F4F60F92
:1016C0009374F70F13F9F70F9379F80F120492043C
:1016D00012099209B305E4018041B385E401844114
:1016E000B305E90103A90500B385E90183A9050054
:1016F000B3C2820033439300B3C32301334E3E0190
:10170000918211839183135848003374F701B3F425
:10171000F7013379F801B3F9F601B30554018041BB
:10172000B38554018441B305590103A90500B3856C
:10173000590183A90500B3C2820033439300B3C3A8
:101740002301334E3E01A1822183A18313588800D7
:1017500033F4F701B374F80133F9F601B379F70103
:10176000B305D4018041B385D4018441B305D901C7
:1017700003A90500B385D90183A90500B3C282007E
:1017800033439300B3C32301334E3E01A18221832F
:10179000A183135888003374F801B3F4F601337948
:1017A000F701B3F9F701B30544018041B385440162
:1017B0008441B305490103A90500B385490183A903
:1017C0000500B3C2820033439300B3C32301334EF9
:1017D0003E01410513F4F20F9374F30F13F9F30F65
:1017E0009379FE0F1204920412099209B305E401E1
:1017F0009441B385E4019841B305E9019C41B38567
:10180000E90103A8050093D242001353430093D388
:101810004300135E4E003374F301B3F4F3013379E4
:10182000FE01B3F9F201B30554018041B3855401BF
:101830008441B305590103A90500B385590183A962
:101840000500A18E258FB3C727013348380193D2F5
:1018500082001353830093D38300135E8E0033F40E
:10186000F301B374FE0133F9F201B379F301B30567
:10187000D4018041B385D4018441B305D90103A9C2
:101880000500B385D90183A90500A18E258FB3C7B3
:1018900027013348380193D282001353830093D336
:1018A0008300135E8E003374FE01B3F4F2013379CA
:1018B000F301B3F9F301B30544018041B385440159
:1018C0008441B305490103A90500B385490183A9F2
:1018D0000500A18E258FB3C7270133483801832225
:1018E00005000323450083238500032EC50013F460
:1018F000F60F9374F70F13F9F70F9379F80F12049B
:10190000920412099209B305E4018041B385E40110
:101910008441B305E90103A90500B385E90183A961
:101920000500B3C2820033439300B3C32301334E97
:101930003E01918211839183135848003374F7015B
:10194000B3F4F7013379F801B3F9F601B3055401A3
:101950008041B38554018441B305590103A90500B1
:10196000B385590183A90500B3C2820033439300B4
:10197000B3C32301334E3E01A1822183A1831358B7
:10198000880033F4F701B374F80133F9F601B37941
:10199000F701B305D4018041B385D4018441B30577
:1019A000D90103A90500B385D90183A90500B3C2F4
:1019B000820033439300B3C32301334E3E01A1821F
:1019C0002183A183135888003374F801B3F4F6011E
:1019D0003379F701B3F9F701B30544018041B385C9
:1019E00044018441B305490103A90500B3854901B8
:1019F00083A90500B3C2820033439300B3C323011C
:101A0000334E3E01410513F4F20F9374F30F13F9B3
:101A1000F30F9379FE0F1204920412099209B30591
:101A2000E4019441B385E4019841B305E9019C4187
:101A3000B385E90103A8050093D242001353430084
:101A400093D34300135E4E003374F301B3F4F301F8
:101A50003379FE01B3F9F201B30554018041B38536
:101A600054018441B305590103A90500B385590107
:101A700083A90500A18E258FB3C7270133483801FC
:101A800093D282001353830093D38300135E8E009E
:101A900033F4F301B374FE0133F9F201B379F301C6
:101AA000B305D4018041B385D4018441B305D90184
:101AB00003A90500B385D90183A90500A18E258F4F
:101AC000B3C727013348380193D2820013538300F0
:101AD00093D38300135E8E003374FE01B3F4F201DE
:101AE0003379F301B3F9F301B30544018041B385C0
:101AF00044018441B305490103A90500B3854901A7
:101B000083A90500A18E258FB3C72701334838016B
:101B1000832205000323450083238500032EC5008F
:101B200013F4F60F9374F70F13F9F70F9379F80F77
:101B30001204920412099209B305E4018041B385AD
:101B4000E4018441B305E90103A90500B385E90176
:101B500083A90500B3C2820033439300B3C32301BA
:101B6000334E3E01918211839183135848003374A0
:101B7000F701B3F4F7013379F801B3F9F601B305CE
:101B800054018041B38554018441B305590103A92F
:101B90000500B385590183A90500B3C28200334310
:101BA0009300B3C32301334E3E01A1822183A1835D
:101BB0001358880033F4F701B374F80133F9F601D0
:101BC000B379F701B305D4018041B385D4018441D1
:101BD000B305D90103A90500B385D90183A905007F
:101BE000B3C2820033439300B3C32301334E3E019B
:101BF000A1822183A183135888003374F801B3F4C0
:101C0000F6013379F701B3F9F701B30544018041D7
:101C1000B38544018441B305490103A90500B38597
:101C2000490183A90500B3C2820033439300B3C3C3
:101C30002301334E3E01410513F4F20F9374F30F69
:101C400013F9F30F9379FE0F12049204120992090B
:101C5000B305E4019441B385E4019841B305E9017A
:101C60009C41B385E90103A8050093D242001353B8
:101C7000430093D34300135E4E003374F301B3F477
:101C8000F3013379FE01B3F9F201B3055401804148
:101C9000B38554018441B305590103A90500B385F7
:101CA000590183A90500A18E258FB3C727013348A9
:101CB000380193D282001353830093D38300135EC1
:101CC0008E0033F4F301B374FE0133F9F201B379FA
:101CD000F301B305D4018041B385D4018441B30538
:101CE000D90103A90500B385D90183A90500A18EF7
:101CF000258FB3C727013348380193D2820013538D
:101D0000830093D38300135E8E003374FE01B3F41B
:101D1000F2013379F301B3F9F301B30544018041D2
:101D2000B38544018441B305490103A90500B38586
:101D3000490183A90500A18E258FB3C72701334828
:101D40003801832205000323450083238500032EE9
:101D5000C50013F4F60F9374F70F13F9F70F937987
:101D6000F80F1204920412099209B305E4018041AC
:101D7000B385E4018441B305E90103A90500B385F6
:101D8000E90183A90500B3C2820033439300B3C3C2
:101D90002301334E3E0191821183918313584800F1
:101DA0003374F701B3F4F7013379F801B3F9F601AD
:101DB000B30554018041B38554018441B3055901F1
:101DC00003A90500B385590183A90500B3C28200A8
:101DD00033439300B3C32301334E3E01A1822183D9
:101DE000A1831358880033F4F701B374F80133F971
:101DF000F601B379F701B305D4018041B385D4016D
:101E00008441B305D90103A90500B385D90183A98C
:101E10000500B3C2820033439300B3C32301334EA2
:101E20003E01A1822183A183135888003374F801F5
:101E3000B3F4F6013379F701B3F9F701B3054401BF
:101E40008041B38544018441B305490103A90500DC
:101E5000B385490183A90500B3C2820033439300CF
:101E6000B3C32301334E3E01410513944200931442
:101E700043001399430093194E003374F401B3F4F3
:101E8000F4013379F901B3F9F901B305D40183C63B
:101E90000500B385D40103C70500B305D90183C785
:101EA0000500B385D90103C805001354430093D43A
:101EB000430013594E0093D942003374F401B3F434
:101EC000F4013379F901B3F9F901B305D40103C47D
:101ED0000500B385D40183C40500B305D90103C946
:101EE0000500B385D90183C905002204A204220993
:101EF000A209A18E258FB3C727013348380113D417
:101F0000C3009354CE0013D9C2009359C300337455
:101F1000F401B3F4F4013379F901B3F9F901B3052C
:101F2000D40103C40500B385D40183C40500B305FF
:101F3000D90103C90500B385D90183C9050042044D
:101F4000C2044209C209A18E258FB3C727013348B5
:101F5000380113544E0193D442011359430193D9CC
:101F600043013374F401B3F4F4013379F901B3F9A3
:101F7000F901B305D40103C40500B385D40183C4BA
:101F80000500B305D90103C90500B385D90183C98B
:101F900005006204E2046209E209A18E258FB3C73D
:101FA00027013348380114C258C21CC62326060133
:101FB0001244A2443249C249524AE24A7101828023
:101FC0003D432A876373C3029377F700BDEFADE506
:101FD000937606FF3D8ABA960CC34CC30CC74CC718
:101FE0004107E36BD7FE11E28280B306C3408A0645
:101FF0009702000096966780A6002307B700A30605
:10200000B7002306B700A305B7002305B700A30454
:10201000B7002304B700A303B7002303B700A3024C
:10202000B7002302B700A301B7002301B700A30044
:10203000B7002300B700828093F5F50F93968500D3
:10204000D58D93960501D58D61B79396270097029C
:10205000000096968682E78086FA9680C1171D8FCB
:102060003E96E374C3F8A5B75D7122D406D62A84E0
:102070002EDA32DC36DEBAC0BEC2C2C4C6C617050E
:10208000FF5F032525A211C51C4D81E72AC6F1205B
:1020900032450C455418228636CEA52EB250225415
:1020A00061618280411122C406C62A842316B500CC
:1020B0002317C50023200500232205002324050043
:1020C0002322050623280500232A0500232C0500CA
:1020D000214681451305C505E5359707000093871F
:1020E000E75F5CD097070000938767621CD497076F
:1020F00000009387A7665CD4970700009387676901
:10210000B24000D01CD822444101828097150000C3
:102110009385E59FB1A2411126C2130680069384E0
:10212000F5FFB384C4024AC02E8922C406C6938533
:102130004407612A2A8419C9232005002322250186
:10214000310508C41386840681459D3DB240228531
:10215000224492440249410182801C4DBDE3411159
:1021600022C406C697070000938787FA1CD523244C
:102170000504232605042328050497F7FFFF83A7FA
:10218000E7E92A846314F50085471CCD22851D28C4
:1021900048C02285052808C422852D2048C448400F
:1021A00001469145013708440546A545E53D4844AB
:1021B0000946C945C53D8547B2401CCC2244410172
:1021C00082808280411126C297F4FFFF83A404E538
:1021D0009C4C4AC006C622C42A8999E32685B53F8D
:1021E000938484048044DC40FD1763D607009C4040
:1021F000B1CF8440C5BF0317C40031E7C17785075D
:1022000023220406232004002322040023240400A4
:102210005CC423280400232A0400232C0400214644
:1022200081451305C405693B232A0402232C0402BB
:102230002324040423260404B24022852244924429
:102240000249410182801304840679BF91454A8581
:10225000D93588C02A8451FDB1472320F900E9BF50
:10226000797122D44AD04ECE52CC5AC85EC606D618
:1022700026D256CA2A892E8A130485048149054B21
:10228000FD5B0444832A4400FD1A63D00A02004027
:102290006DF8B250225492540259624AD24A424BCB
:1022A000B24B4E85F2494561828083D7C400637B7F
:1022B000FB008397E40063877701A6854A85029A2D
:1022C000B3E9A90093848406C1B7011126CA938497
:1022D0003500F1984AC806CE22CC4EC6A104B147BB
:1022E0002A8963F6F404B14463E5B4044A85EF0037
:1022F000701C97F6FE5F9386667D98423A8429E4C7
:1023000017F4FE5F1304C47C1C4089E781454A85AD
:10231000612E08C0A6854A85412EFD59631A3507EE
:10232000B1472320F9004A85EF00F01831A0E3DD22
:1023300004FAB1472320F9000145F2406244D24437
:102340004249B249056182801C40858F63CF0702F4
:102350002D466376F6001CC03E9404C029A05C4064
:10236000631387029CC24A85EF00F0141305B40082
:102370009307440061993307F540E300F5FC3A9474
:10238000898F1CC05DBF5CC3F9BF2287404085BFF9
:10239000130435007198E30285FCB305A4404A8517
:1023A0002126E31C35FBADBF1C46FD171CC663D9B7
:1023B0000700184E63C5E700A9476393F500D9AE3F
:1023C0001C422E851387170018C22380B700828015
:1023D000011122CC26CA4AC84EC652C406CE2A894A
:1023E000AE893284B304D6007D5A6314940001454B
:1023F00009A8834504004E864A857D370504E31607
:1024000045FFF2406244D2444249B249224A056142
:102410008280357122CD26CB4AC94EC706CF52C520
:1024200056C35AC1DEDEE2DCE6DAAA89AE8432891E
:10243000368401C51C4D91E30D3397E7FFFF938769
:10244000A7FB639CF40C83A4490083D7C400A18B31
:10245000FDC79C48EDC793070002A304F102930750
:10246000000302D22305F10222C6930B500297EA21
:10247000FFFF938A6AFC054C294B4A84834704007A
:1024800099C36390770FB30C2441630D2401E68652
:102490004A86A6854E852D3FFD576304F51E92574B
:1024A000E6973ED283470400638D071CFD5713094E
:1024B000140002C802CE3ECA02CCA309010482D491
:1024C0008345090015465685EF00207DC247130459
:1024D000190051E913F7070109C713070002A309FF
:1024E000E10413F7870009C71307B002A309E10449
:1024F000834609001307A002638FE606F2474A8469
:10250000814625460347040093051400130707FD81
:102510006378E60AADCA3ECEBDA097E7FFFF93877A
:10252000A7EF6395F40083A4890005B797E7FFFF41
:10253000938787EAE39BF4F083A4C90039B7A685A3
:102540004E85992609D97D55FA406A44DA444A49AC
:10255000BA492A4A9A4A0A4BF65B665CD65C0D6118
:102560008280050421BF330555413315AC00C98F66
:102570003EC82289B1B7324793064700184336C692
:10258000634907023ACE034704009307E002631F42
:10259000F704034714009307A002631BF702B24736
:1025A0000904138747009C433AC663C107023ECA29
:1025B00035A83307E04093E727003ACE3EC8E1B79D
:1025C000B38767032E848546BA972DBFFD57C5B7DD
:1025D000050402CA81468147254603470400930546
:1025E0001400130707FD6374E606F1F28345040047
:1025F0000D4617E5FFFF1305A5E4452511CD97E727
:10260000FFFF9387E7E31D8D93070004B397A700AF
:10261000424505045D8D2AC883450400194617E527
:10262000FFFF130525E2130914002304B102B525A9
:102630002DC19307000095E74247B2471377071073
:1026400009CF91073EC69257D2973ED23DB5B38788
:1026500067032E848546BA9749B79D07E19BA1077A
:10266000D5B77800970600009386C6D626860C0854
:102670004E8597000000E7000000FD572A8AE3140A
:10268000F5FC83D7C40093F70704E39E07EA1255CD
:1026900065BD7800970600009386C6D326860C0891
:1026A0004E85EF00407CD1BF411122C42A842E8583
:1026B00097F7FE5F23A0074206C6EF009036FD574E
:1026C0006318F50097F7FE5F83A7C74091C31CC04E
:1026D000B240224441018280411122C42E8483955C
:1026E000E50006C6EF00301F634905007C48AA9745
:1026F0007CC8B2402244410182808357C4007D7768
:102700007D17F98F2316F400EDB783D7C5000111AB
:1027100022CC26CA4AC84EC606CE93F70710AA8412
:102720002E843289B68991C78395E5008946014692
:1027300081218357C4007D777D17F98F8315E400CD
:102740002316F4006244F240CE864A86B2494249DA
:102750002685D2440561FDA8411122C42E848395AB
:10276000E50006C63121FD570357C400631BF50081
:10277000FD77FD17F98F2316F400B2402244410182
:1027800082808567D98F2316F40068C8FDB78395CA
:10279000E50009A4011122CC26CA4AC806CE4EC6BD
:1027A000AA842E89328401C51C4D91E37D3297E7BE
:1027B000FFFF938767C46319F406C0401C4C1CC418
:1027C0008357C400A18BC9C31C48BDCF1C48084017
:1027D0009379F90F1379F90F1D8D5C486346F50065
:1027E000A28526851D262DE51C440505FD171CC464
:1027F0001C401387170018C0238037015C48638989
:10280000A7008357C400858B81CBA9476316F900C5
:10281000A2852685DD2C0DEDF2406244D244B249FA
:102820004A8542490561828097E7FFFF9387C7BECB
:102830006314F400804459B797E7FFFF9387C7B943
:10284000E31EF4F6C0449DBFA285268535283DDDF4
:102850007D59D9B7411122C42A842E85B285368686
:1028600097F7FE5F23A8072606C6EF007023FD57E3
:102870006318F50097F7FE5F83A7C72591C31CC0B7
:10288000B240224441018280411122C426C24AC082
:1028900006C697F4FE5F83A4E4202A892E8491C49F
:1028A0009C4C81E72685EFF05F8B97E7FFFF9387CE
:1028B000A7B46317F402C0408317C400139707013D
:1028C00093F687004183ADEA9376070195EA2547A1
:1028D0002320E90093E707042316F4007D5571A82F
:1028E00097E7FFFF938747B36314F4008044E9B789
:1028F00097E7FFFF938747AEE310F4FCC0446DBF3A
:10290000118B0DC74C5889C9930744046384F500A3
:102910004A855D26232A04028357C400232204002B
:1029200093F7B7FD2316F4001C481CC08357C4005E
:1029300093E787002316F4001C4881EF8357C400F7
:102940001307002093F707286385E700A2854A85CF
:1029500075248317C4001397070193F6170041836A
:102960009DC2544823240400B306D04014CC14481C
:10297000014581E61377070831FFB24022449244B3
:1029800002494101828093762700014691E2504836
:1029900010C4F1BF411122C42A842E8597F7FE5F2F
:1029A00023AA071206C6EF00007CFD576318F50046
:1029B00097F7FE5F83A7071291C31CC0B240224461
:1029C0004101828083D7C500011122CC26CA06CEE0
:1029D0004AC84EC613F78700AA842E8475E3D841EF
:1029E0006347E000B8416344E000014575A85854CE
:1029F0006DDF856603A90400F58F23A00400A5CF31
:102A000068488357C400918B99C75C401D8D5C5802
:102A100099C33C401D8D5C540C502A868146268506
:102A20008297FD570357C400631DF5009440F54796
:102A300063E3D708B70740208507B3D7D700858B56
:102A4000BDCB1C48232204001CC085677D8F19C79D
:102A5000FD576314F5009C4091E368C84C5823A0CF
:102A60002401C1D5930744046384F5002685A92475
:102A7000232A04029DBF0C508546014626850297F5
:102A8000FD57E310F5F89C40ADDF75476385E7001F
:102A900059476395E70023A0240181BF8357C400F1
:102AA00093E707042316F400F2406244D2444249FB
:102AB000B24905618280136707042316E400EDB76D
:102AC00083A90501E38309F203A905008D8B23A0E7
:102AD000350133093941014791E3D84918C4E35618
:102AE00020F11C540C50CA864E8626858297634A74
:102AF000A0008357C4007D5593E707042316F40014
:102B000065B7AA993309A940D9BF9C49A5C301114A
:102B100022CC06CE2A8419C51C4D89E72EC6EFF0BB
:102B2000CFE3B24597E7FFFF9387078D639BF500DF
:102B30004C408397C50095C722856244F2400561E9
:102B400051B597E7FFFF9387278D6394F5000C44F9
:102B5000CDB797E7FFFF93872788E39CF5FC4C44AC
:102B6000C9BFF2406244014505618280014582800F
:102B7000411122C42A842E85B285368697F7FE5FDE
:102B800023AA07F406C6A125FD576318F50097F799
:102B9000FE5F83A727F491C31CC0B24022444101C9
:102BA00082805971CAD02E898395E500A2D4A6D21D
:102BB00086D63284B68463DC05008317C90023A05F
:102BC000040093F707088DE39307004005A0300049
:102BD000252BE34405FE3247BD67F98F7977BA9715
:102BE00093B717009CC0CDB793070004B6501CC024
:102BF00026549654065901456561828083D7C500E5
:102C0000011122CC06CE26CA4AC8898B2E8489CFD0
:102C1000930774041CC01CC885475CC8F24062441A
:102C2000D244424905618280740030002A89953F70
:102C3000A245AA844A85EFF04FE901ED8317C4004D
:102C400013F7072061FFF19B93E727002316F40099
:102C5000C1B797F7FFFF9387A74B2324F902835748
:102C6000C40008C008C893E707082316F400A24769
:102C70005CC8B24789CF8315E4004A85752901C92C
:102C80008357C400F19B93E717002316F400035504
:102C9000C400C98C2316940051B793F5F50F2A96FA
:102CA0006314C5000145828083470500E38DB7FEAC
:102CB0000505FDB782808280C5C183A7C5FF0111CC
:102CC00022CC06CE1384C5FF63D307003E942AC6E8
:102CD000D53717F7FE5F130767DF1C43324581EBDB
:102CE0002322040000C36244F2400561E9B7637D1A
:102CF000F4001040B306C4006396D7009443DC434D
:102D0000B29614C05CC0F9BF3E87DC4399C3E37D33
:102D1000F4FE14433306D700631F86001040B296BA
:102D200014C33306D700E390C7FC9043DC43B2964C
:102D300014C35CC34DBF6375C400B1471CC165B704
:102D40001040B306C4006396D7009443DC43B296A8
:102D500014C05CC040C341BF8280797152CC9C4991
:102D60003A8A984522D426D24ECE56CA06D64AD0A2
:102D70005AC85EC6AA892E84B284B68A63D3E70095
:102D8000BA879CC00347340419C385079CC01C4004
:102D900093F7070281C79C4089079CC00329040060
:102DA00013796900631A0900130B9401FD5B5C44FD
:102DB0009840998F634CF90483473404B336F0008C
:102DC0001C4093F70702A5EB13063404D6854E8505
:102DD000029AFD576303F5041C4011469840998BF5
:102DE000544481446397C700B384E64063D304002E
:102DF00081441C4418486354F700998FBE940149DC
:102E000069047D5B63982405014509A885465A86B7
:102E1000D6854E85029A631E75017D55B2502254A7
:102E200092540259F249624AD24A424BB24B45612E
:102E300082800509ADBF3307D40013060003A30148
:102E4000C7040347540493871600A2978906A381F9
:102E5000E7049DBF85462286D6854E85029AE30EFD
:102E600065FB050945B7797122D426D24AD04ECEEA
:102E700006D652CC56CA5AC803C8850193078007A4
:102E8000AA842E843289B68963EE0701930720064F
:102E90009386350463ED07016305081C93078005DD
:102EA000630AF812930A24042301040515A8930762
:102EB000D8F993F7F70F5546E366F6FE17D6FFFFEE
:102EC0001306465B8A07B2979C43B29782871C43DE
:102ED000938A2504938647009C4314C32381F504F9
:102EE00085475DA29C41084313F6070893054500FA
:102EF0000DC21C410CC363D807001307D002B307EF
:102F0000F040A301E40417D6FFFF13062654294816
:102F1000A1A013F607041C410CC371DEC207C187D0
:102F2000D9BF90411C43137506089385470001C51E
:102F30000CC39C4339A0137606040CC37DDA83D7F7
:102F400007001307F00617D6FFFF13062650630489
:102F5000E80E2948A3010404584018C4634507003B
:102F60000C40ED990CC099E3B68A19CFB68A33F7B5
:102F70000703FD1A3297034707002380EA003E87C4
:102F8000B3D70703E37507FFA147631EF8001C4092
:102F9000858B91CB58401C4863C7E700930700031B
:102FA000A38FFAFEFD1AB386564114C84E87CA860F
:102FB0007000A285268555337D5A631B450D7D55CE
:102FC000B250225492540259F249624AD24A424BB8
:102FD00045618280A382050517D6FFFF13060647C9
:102FE0000C40084313F805081C411105630D080245
:102FF00008C313F7150001C793E505020CC041484B
:10300000B1FB18401377F7FD18C0A9B79C4193E7AF
:1030100007029CC193078007A302F40417D6FFFFA1
:103020001306064475BF13F8050408C3E30308FC40
:10303000C207C1837DBF214831BF90411C43CC49A9
:1030400013780608138547006306080008C39C43ED
:103050008CC301A808C3137606049C4375DA239039
:10306000B70023280400B68A91B71C43D04181459C
:103070009386470014C383AA07005685393901C5D2
:103080003305554148C05C401CC8A301040439BF46
:1030900014485686CA8526858299E30245F31C406A
:1030A000898B8DE7B2474844E35CF5F03E8509BF64
:1030B00085465686CA8526858299E30265F1050A0A
:1030C0005C443247998FE345FAFEE9BF014A930A0F
:1030D00094017D5BF5B7411122C42A842E85B28507
:1030E000368697F7FE5F23A7079E06C63122FD5757
:1030F0006318F50097F7FE5F83A7C79D91C31CC0B7
:10310000B240224441018280411122C42A842E858A
:10311000B28597F7FE5F23AF079A06C6B520FD5725
:103120006318F50097F7FE5F83A7C79A91C31CC089
:10313000B240224441018280411122C42A842E855A
:1031400097F7FE5F23A8079806C69520FD576318DA
:10315000F50097F7FE5F83A7E79791C31CC0B240C5
:10316000224441018280011106CE22CC0010232688
:10317000A4FE5D222A87930780051CC3FD573E8568
:10318000F240624405618280011106CE22CC00101B
:103190002326A4FE2324B4FE41222A87930780FA23
:1031A0001CC3FD573E85F2406244056182800111D7
:1031B00022CE00102326A4FE8327C4FEFD1793B75A
:1031C000170093F7F70F3E85724405618280011165
:1031D00006CE22CC00102326A4FE2324B4FE2322F4
:1031E000C4FE1D2A2A87930780051CC3FD573E8510
:1031F000F240624405618280011106CE22CC0010AB
:103200002326A4FE2324B4FE2322C4FE31222A87CF
:10321000930780051CC3FD573E85F240624405615B
:103220008280797106D622D40018232EA4FCB727F9
:10323000008083A747AA2326F4FE138701CD938736
:10324000014D6314F700FD57B9A0B727008003A70D
:1032500047AA8327C4FD3E979387014D6376F70203
:10326000B727008003A747AA8327C4FD3E97B72747
:10327000008023A2E7AA8325C4FD0325C4FEEFC076
:10328000DFE08327C4FE01A8B72700801387014D24
:1032900023A2E7AAFD573E85B250225445618280A1
:1032A000797106D622D40018232EA4FC232CB4FC5A
:1032B000232AC4FC0327C4FD85476309F700A92816
:1032C0002A87930780051CC3FD572DA8832784FDFB
:1032D0002324F4FE232604FE39A8032784FE832733
:1032E000C4FEBA9783C707003E85892E8327C4FE94
:1032F00085072326F4FE0327C4FE832744FDE36EDF
:10330000F7FC81473E85B250225445618280AA85F0
:10331000814601460145E9A017E5FE5F0325857852
:103320008280411122C406C6970700009387471385
:103330002A8499C381451D2217E5FFFF032505CE89
:103340001C5591C382972285EF40903E411122C4C3
:1033500026C217D4FFFF1304E4F997D4FFFF938428
:1033600064F9058C06C6098411E4B24022449244F3
:10337000410182807D1493172400A6979C43829775
:10338000E5B7411122C426C217D4FFFF130484F508
:1033900097D4FFFF938404F5818C4AC006C68984C4
:1033A00001496315990217D4FFFF1304A4F397D4BE
:1033B000FFFF938424F3818C89840149631D990064
:1033C000B240224492440249410182801C400509D6
:1033D00011048297F9B71C40050911048297F9BFBF
:1033E000AA8817E5FE5F1305256F1C4191EF17E7CB
:1033F000FE5F1307276F18C113050000BA8709C5C0
:103400001C412324F708BA87D8437D487D5563467D
:10341000E804638D080203A88708630008041315F5
:103420002700429510C10323081005463316E60015
:103430003363C300232068102320D508894663978F
:10344000D80083264810558E2322C81093061700F3
:103450000A07D4C3BA978CC701458280797156CACE
:103460005AC85EC662C406D622D426D24AD04ECEF0
:1034700052CC66C22A8BAE8A97EBFE5F938BCB65EC
:10348000054C83A40B0081CCC04083A98408130998
:10349000F4FF0A04338A89002694635F0900B2505E
:1034A000225492540259F249624AD24A424BB24BD8
:1034B000224C924C45618280638C0A00639609001D
:1034C0007D19711A7114D1BF8327CA07E39A57FF78
:1034D000D8405C407D176318270323A22401EDD355
:1034E00083AC44006388090083A6091033172C01BC
:1034F000F98E89EE8297D84083A70B00E31397F9E2
:10350000E380F4FCBDBF23220400D1BF83A6491091
:103510008325CAFF758F01E75A858297E9BF2E85FB
:103520008297D1BF011106CE22CC0010B7270080B0
:1035300083A787ADA9EFB7270080054723ACE7AC89
:10354000B70701201387C72EB70701209387072EDF
:1035500063F1E704B70701209387072E2326F4FEC3
:1035600031A88327C4FE9C432324F4FE832784FED2
:1035700082978327C4FE91072326F4FE0327C4FE07
:10358000B70701209387C72EE31DF7FC21A0010098
:1035900011A00100F240624405618280011106CE53
:1035A00022CC0010B727008083A7C7ADA9EFB727AB
:1035B0000080054723AEE7ACB70701201387072F2C
:1035C000B70701209387072F63F1E704B7070120AE
:1035D0009387072F2326F4FE31A88327C4FE9C433C
:1035E0002324F4FE832784FE82978327C4FE910759
:1035F0002326F4FE0327C4FEB70701209387072F75
:10360000E31DF7FC21A0010011A00100F24062447B
:1036100005618280411106C622C4000821370100DD
:10362000B240224441018280411106C622C40008F2
:10363000B5370100B240224441018280011106CE1B
:1036400022CC00102326A4FE8325C4FEB7270080C9
:10365000138587A32D28AA873E85F2406244056121
:103660008280011106CE22CC00102326A4FE232442
:10367000B4FE8327C4FE9C439C43832584FE03251C
:10368000C4FE82970100F24062440561828001110C
:1036900006CE22CC00102326A4FE2324B4FE8327CA
:1036A000C4FE9C43DC43832584FE0325C4FE82972D
:1036B000AA873E85F240624405618280011106CEF0
:1036C00022CC00102326A4FE2324B4FE8327C4FEAC
:1036D0009C43DC4B832584FE0325C4FE8297AA8786
:1036E0003E85F240624405618280011122CE0010C5
:1036F0002326A4FE0327C4FEB72700809387C7AA0A
:103700006315F700B707000211A081473E85724498
:1037100005618280011122CE00102326A4FE03271A
:10372000C4FEB72700809387C7AA6314F7008947B0
:1037300011A081473E85724405618280011122CE2D
:1037400000102326A4FE2324B4FE832784FE91E7E1
:10375000B71700809387070921A8032784FE8547B0
:103760006317F700B71700809387070911A08147F7
:103770003E85724405618280011122CE001023260D
:10378000A4FE2324B4FE832784FE99E38D4709A871
:10379000032784FE85476314F7009D4711A08147E6
:1037A0003E857244056182805D7186C6A2C4CAC22C
:1037B000CEC052DE56DC5ADA5ED862D666D48008B5
:1037C000232EA4FA8327C4FB3E8505372326A4FCB9
:1037D0000327C4FCB167F117BA979C432324F4FC78
:1037E0000327C4FCB167E117BA979C432322F4FC7A
:1037F0000327C4FCB167F117BA979C43032784FCE5
:10380000E318F7FC832784FC3E8C814C93190C0051
:103810000149832744FC3E8A814A336B4901B3EB5B
:1038200059015A87DE873A85BE85B6402644164937
:103830008649725AE25A525BC25B325CA25C616199
:103840008280797106D622D44AD24ED00018232E17
:10385000A4FC232CB4FC2328C4FC232AD4FC8327F7
:10386000C4FD2326F4FE8327C4FE3E85BD3D2324EC
:10387000A4FE832784FD8E073E87832784FE3E9720
:1038800091679107BA973E87FD571CC3832784FD34
:103890008E073E87832784FE3E979167BA973E87BF
:1038A000832704FD1CC3832744FD13D907008149E6
:1038B000832784FD8E073E87832784FE3E9791678A
:1038C0009107BA974A8798C381473E85B2502254E0
:1038D0001259825945618280011106CE22CC001016
:1038E000232604FEF32740F12326F4FE8327C4FE9B
:1038F0003E85EF40604A2324A4FE032584FEEF406A
:103900004047AA873E85F240624405618280397152
:1039100006DE22DC80002326A4FC0325C4FCDD3B5C
:103920002324A4FE8327C4FC2322F4FE832744FE21
:10393000DC43A9EF232604FE81A08325C4FE0325D2
:10394000C4FCED3B2320A4FE8325C4FE0325C4FC58
:103950002535232EA4FC832704FE9C43DC4F8326BD
:10396000C4FC01468325C4FD032504FE82978327FA
:10397000C4FE85072326F4FE0327C4FE832784FEA6
:10398000E34DF7FA832744FE0547D8C30100F25000
:10399000625421618280397106DE22DC8000232698
:1039A000A4FC2324B4FC2322C4FC2320D4FCFD5714
:1039B0002326F4FEEF10404A2320A4FE232404FE15
:1039C000213F232EA4FC0325C4FCA933232CA4FCF3
:1039D000032704FE85476308F700832704FE81C799
:1039E0008327C4FE49A0232204FE91A0832544FE20
:1039F0000325C4FC5133232AA4FC832544FE03255C
:103A0000C4FC2D3B2324A4FE0327C4FD832784FE8E
:103A10006318F700032784FC832744FD6300F70243
:103A2000232404FE832744FE85072322F4FE032774
:103A300044FE832784FDE34BF7FA11A0010083279E
:103A400084FE85C3832784FE9C43DC4F832604FCCD
:103A5000032644FC832584FC032584FE82972326C9
:103A6000A4FE8327C4FE3E85F25062542161828009
:103A7000797122D60018232EA4FC232CB4FC232A0F
:103A8000C4FC2328D4FCFD572326F4FE8327C4FE60
:103A90003E85325445618280011106CE22CC001051
:103AA0002326A4FEEF10403BAA873E85F2406244E5
:103AB00005618280797106D622D40018232EA4FCD9
:103AC000232CB4FCFD572326F4FE39352324A4FE11
:103AD000832784FE95C3032784FD854763E0E702BF
:103AE000832784FE9C43DC43832584FD032584FED9
:103AF00082972326A4FE21A0010011A001008327A4
:103B0000C4FE3E85B250225445618280397106DE82
:103B100022DC80002326A4FC2324B4FCFD572326AA
:103B2000F4FE832784FCC9C7232404FE75332320B5
:103B3000A4FE0325C4FCF93E232EA4FC232204FE8C
:103B400091A0832544FE0325C4FC3D31232CA4FC15
:103B5000832544FE0325C4FCD5362324A4FE032775
:103B600004FE832784FE6318F700032784FC832761
:103B700084FD6300F702232404FE832744FE8507A7
:103B80002322F4FE032744FE8327C4FDE34BF7FA08
:103B900011A00100832784FE81CF832784FE9C43EC
:103BA000DC53832584FC032584FE82972326A4FE10
:103BB0008327C4FE3E85F2506254216182803971B0
:103BC00006DE22DC80002326A4FC2324B4FCFD575F
:103BD0002326F4FE832784FCC9C7232404FEED3981
:103BE0002320A4FE0325C4FC3536232EA4FC232267
:103BF00004FE91A0832544FE0325C4FCB53E232C7E
:103C0000A4FC832544FE0325C4FC0D3E2324A4FE0E
:103C1000032704FE832784FE6318F700032784FC30
:103C2000832784FD6300F702232404FE832744FED8
:103C300085072322F4FE032744FE8327C4FDE34BBC
:103C4000F7FA11A00100832784FE81CF832784FE29
:103C50009C439C57832584FC032584FE829723265E
:103C6000A4FE8327C4FE3E85F25062542161828007
:103C7000797106D622D40018232EA4FC232CB4FC80
:103C8000232AC4FCFD572326F4FE8327C4FD2324E6
:103C9000F4FE0325C4FDEFF05FA52322A4FE032755
:103CA00084FD91476301F70C032784FD914763C1AD
:103CB000E70E032784FD8D476306F706032784FD7F
:103CC0008D4763C7E70C032784FD85476308F7002A
:103CD000032784FD89476303F7025DA8832744FD1A
:103CE000D5CB032584FEEFF03FAC2A87AE87832631
:103CF00044FD98C2DCC2232604FE69A8832744FD44
:103D0000C1CF832744FD9C432320F4FE832704FE78
:103D10008A073E87832744FEBA9723A007002326FD
:103D200004FE9DA8832744FDB5CB832744FD9C4317
:103D30002320F4FE832704FE8A073E87832744FE60
:103D4000BA973E8785471CC30F008004832704FE73
:103D50008A073E87832744FEBA979C432326F4FEB6
:103D6000232604FE25A8232604FE832744FD8DCBAD
:103D7000832744FD9C432320F4FE832704FE8A0707
:103D80003E87832744FEBA979C432326F4FE09A866
:103D9000010001A8010031A0010021A0010011A033
:103DA00001008327C4FE3E85B250225445618280C3
:103DB000797106D622D40018232EA4FC232CB4FC3F
:103DC000EF406000AA872326F4FE9307C4FE3E86D8
:103DD00089450325C4FD693DAA873E85B25022541A
:103DE00045618280797106D622D40018232EA4FC66
:103DF000232CB4FCEF30307DAA872326F4FE9307F2
:103E0000C4FE3E868D450325C4FD9D35AA873E85AB
:103E1000B250225445618280011122CE0010232627
:103E2000A4FE0327C4FE938741816314F7008147F2
:103E300011A0FD573E85724405618280011122CE9A
:103E400000102326A4FE0327C4FE93874181631735
:103E5000F700B727F4009387074011A081473E85FC
:103E6000724405618280011122CE00102326A4FE37
:103E70000327C4FE938741816317F700B7170080BB
:103E80009387070911A081473E85724405618280AE
:103E9000011122CE00102326A4FE0327C4FE93871F
:103EA00041816314F700814711A081473E85724428
:103EB00005618280011122CE00102326A4FE8327F3
:103EC000C4FE634CF000B72700800327C4FE0A0736
:103ED000938787AABA979C4311A081473E85724475
:103EE00005618280011122CE0010F32740F12326C4
:103EF000F4FE8327C4FE3E85724405618280011171
:103F000022CE0010A147F3A707302326F4FE0100BC
:103F1000724405618280011122CE0010A147F3B7DF
:103F200007302326F4FE01007244056182800111EE
:103F300022CE0010A147F3A747302326F4FE01004C
:103F4000724405618280011122CE0010A147F3B7AF
:103F500047302326F4FE010072440561828001117E
:103F600022CE001093070008F3A747302326F4FE63
:103F70000100724405618280011122CE0010930776
:103F80000008F3B747302326F4FE010072440561B0
:103F90008280011122CE0010856793870780F3A7E6
:103FA00047302326F4FE010072440561828001112E
:103FB00022CE0010856793870780F3B7473023260A
:103FC000F4FE0100724405618280797122D60018E6
:103FD000232EA4FC8327C4FD0547B317F70023262F
:103FE000F4FE8327C4FEF3A747302324F4FE010028
:103FF000325445618280797122D60018232EA4FCA8
:104000008327C4FD0547B317F7002326F4FE832753
:10401000C4FEF3B747302324F4FE01003254456157
:104020008280011106CE22CC00102326A4FE232478
:10403000B4FE13054006EF30B05A011106CE22CC73
:1040400000102326A4FE2324B4FE1305800CEF30B9
:1040500030595D7186C696C49AC29EC022DE2ADCA3
:104060002EDA32D836D63AD43ED242D046CE72CCB0
:1040700076CA7AC87EC680081305C012EF30505643
:104080001D7186CE96CC9ACA9EC8A2C6AAC4AEC2DC
:10409000B2C036DE3ADC3EDA42D846D672D476D2A8
:1040A0007AD07ECE80103D3D2A87B72700800A0750
:1040B000938787AABA979C432326F4FA8327C4FAE6
:1040C00085C70325C4FA45332324A4FA832784FA39
:1040D00083A7070E2322F4FA832784FA83A7870D88
:1040E000832544FA0D4582970100F640E642564387
:1040F000C6433644264596450646F2566257D25781
:104100004258B258225E925E025FF24F2561730000
:104110002030797106D622D40018232EA4FC232C3B
:10412000B4FCC9332A87B72700800A07938787AA78
:10413000BA979C432326F4FEF32720342324F4FE6D
:104140008327C4FE95C70325C4FE313B2322A4FE6A
:10415000832784FE93F7F73F032744FE9387870E58
:104160008A07BA979C438325C4FD0325C4FE829722
:104170000100B2502254456182801D7186CE96CCDA
:104180009ACA9EC8A2C6AAC4AEC2B2C036DE3ADC83
:104190003EDA42D846D672D476D27AD07ECE80101D
:1041A00091332A87B72700800A07938787AABA978F
:1041B0009C432326F4FA8327C4FA85C70325C4FA4F
:1041C0005D312324A4FA832784FA83A707142322CA
:1041D000F4FA832784FA83A78713832544FA1D45BD
:1041E00082970100F640E6425643C64336442645D0
:1041F00096450646F2566257D2574258B258225E4A
:10420000925E025FF24F256173002030011122CED1
:1042100000102326A4FE2324B4FE0100724405618D
:104220008280797106D622D40018232EA4FC232C78
:10423000B4FC4D39AA873E85B5392326A4FE032553
:10424000C4FEEF10A02D2320A4FE2322B4FE0327DA
:1042500004FE832744FE294581453306A7003288A2
:104260003338E800B386B700B307D800BE8632877C
:10427000B687BA853E860325C4FEEF108030010064
:10428000B25022544561828000000000000000000E
:10429000000000000000000000000000000000001E
:1042A000000000000000000000000000000000000E
:1042B00000000000000000000000000000000000FE
:1042C00000000000000000000000000000000000EE
:1042D00000000000000000000000000000000000DE
:1042E00000000000000000000000000000000000CE
:1042F00000000000000000000000000000000000BE
:10430000197186DE96DC9ADA9ED8A2D6AAD4AED2ED
:10431000B2D0B6CEBACCBECAC2C8C6C6F2C4F6C205
:10432000FAC07EDE00017D3E2A87B72700800A079B
:10433000938787AABA979C432326F4FAF32720345D
:104340002324F4FAF32710342322F4FAF327303429
:104350002320F4FAF3275030232EF4F88327C4FAED
:10436000FDCB0325C4FAEFF01FB0232CA4F883275C
:1043700084FA93F7F73F232AF4F8832784FA63DE5D
:10438000070A032744F9930700086312F7028327FB
:1043900084F983A787392326F4F8832784F983A730
:1043A00007398325C4F8032544F982976DA00327B4
:1043B00044F9AD4763D7E7008327C4F993F7F703C0
:1043C0009DEF832684F9032744F9BA878607BA97B5
:1043D0008E07B69783A787092326F4F8832684F9E6
:1043E000032744F9BA878607BA978E07B69783A73B
:1043F00007098325C4F8032544F98297A9A88327D0
:10440000C4F913F7F70389476317F704F3277030EC
:104410002328F4F8832784F983A7C70D2326F4F80B
:10442000832704F99C432324F4F8832784F8832505
:10443000C4F8032544F9829739A8032784F9832710
:1044400044F99387870E8A07BA979C43832544F9DA
:104450000325C4FA8297F650E6525653C653365493
:10446000265596550656F6466647D6474648B648F8
:10447000264E964E064FF25F096173002030000011
:10448000000000000000000000000000000000002C
:10449000000000000000000000000000000000001C
:1044A000000000000000000000000000000000000C
:1044B00000000000000000000000000000000000FC
:1044C00000000000000000000000000000000000EC
:1044D00000000000000000000000000000000000DC
:1044E00000000000000000000000000000000000CC
:1044F00000000000000000001D7186CE96CC9ACA14
:104500009EC8A2C6AAC4AEC2B2C036DE3ADC3EDA4B
:1045100042D846D672D476D27AD07ECE8010EFF0D2
:104520007F9C2A87B72700800A07938787AABA97B4
:104530009C432326F4FA8327C4FA8DC70325C4FAC3
:10454000EFF07F922324A4FA832784FA83A787219C
:104550002322F4FA832784FA83A70721832544FAC8
:10456000414582970100F640E6425643C643364431
:10457000264596450646F2566257D2574258B258DB
:10458000225E925E025FF24F2561730020301D7142
:1045900086CE96CC9ACA9EC8A2C6AAC4AEC2B2C0E3
:1045A00036DE3ADC3EDA42D846D672D476D27AD0BB
:1045B0007ECE8010EFF01F932A87B72700800A076E
:1045C000938787AABA979C432326F4FA8327C4FAD1
:1045D0008DC70325C4FAEFF01F892324A4FA83278B
:1045E00084FA83A707232322F4FA832784FA83A774
:1045F0008722832544FA454582970100F640E6422A
:104600005643C6433644264596450646F2566257FB
:10461000D2574258B258225E925E025FF24F256135
:10462000730020301D7186CE96CC9ACA9EC8A2C651
:10463000AAC4AEC2B2C036DE3ADC3EDA42D846D6B2
:1046400072D476D27AD07ECE8010EFF0BF892A87DE
:10465000B72700800A07938787AABA979C43232627
:10466000F4FA8327C4FA8DC70325C4FAEFF0AFFF2D
:104670002324A4FA832784FA83A787242322F4FA25
:10468000832784FA83A70724832544FA4945829720
:104690000100F640E6425643C64336442645964559
:1046A0000646F2566257D2574258B258225E925E80
:1046B000025FF24F2561730020301D7186CE96CCCB
:1046C0009ACA9EC8A2C6AAC4AEC2B2C036DE3ADC3E
:1046D0003EDA42D846D672D476D27AD07ECE8010D8
:1046E000EFF05F802A87B72700800A07938787AAA1
:1046F000BA979C432326F4FA8327C4FA8DC703256F
:10470000C4FAEFF04FF62324A4FA832784FA83A790
:1047100007262322F4FA832784FA83A78725832593
:1047200044FA4D4582970100F640E6425643C6439F
:104730003644264596450646F2566257D2574258A9
:10474000B258225E925E025FF24F25617300203004
:104750001D7186CE96CC9ACA9EC8A2C6AAC4AEC205
:10476000B2C036DE3ADC3EDA42D846D672D476D2D1
:104770007AD07ECE8010EFF0EFF62A87B727008040
:104780000A07938787AABA979C432326F4FA8327BC
:10479000C4FA8DC70325C4FAEFF0EFEC2324A4FA82
:1047A000832784FA83A787272322F4FA832784FAAE
:1047B00083A70727832544FA514582970100F640D5
:1047C000E6425643C6433644264596450646F256CB
:1047D0006257D2574258B258225E925E025FF24F41
:1047E0002561730020301D7186CE96CC9ACA9EC872
:1047F000A2C6AAC4AEC2B2C036DE3ADC3EDA42D8A5
:1048000046D672D476D27AD07ECE8010EFF08FED7D
:104810002A87B72700800A07938787AABA979C43FD
:104820002326F4FA8327C4FA8DC70325C4FAEFF0D0
:104830008FE32324A4FA832784FA83A7072923225A
:10484000F4FA832784FA83A78728832544FA5545F9
:1048500082970100F640E6425643C6433644264559
:1048600096450646F2566257D2574258B258225ED3
:10487000925E025FF24F2561730020301D7186CE7B
:1048800096CC9ACA9EC8A2C6AAC4AEC2B2C036DE30
:104890003ADC3EDA42D846D672D476D27AD07ECE90
:1048A0008010EFF02FE42A87B72700800A0793874C
:1048B00087AABA979C432326F4FA8327C4FA8DC7A4
:1048C0000325C4FAEFF02FDA2324A4FA832784FA0D
:1048D00083A7872A2322F4FA832784FA83A7072A47
:1048E000832544FA594582970100F640E642564333
:1048F000C6433644264596450646F2566257D25779
:104900004258B258225E925E025FF24F25617300F8
:1049100020301D7186CE96CC9ACA9EC8A2C6AAC463
:10492000AEC2B2C036DE3ADC3EDA42D846D672D4E7
:1049300076D27AD07ECE8010EFF0CFDA2A87B727F2
:1049400000800A07938787AABA979C432326F4FA24
:104950008327C4FA8DC70325C4FAEFF0CFD02324F0
:10496000A4FA832784FA83A7072C2322F4FA832747
:1049700084FA83A7872B832544FA5D45829701003B
:10498000F640E6425643C64336442645964506461B
:10499000F2566257D2574258B258225E925E025F78
:1049A000F24F2561730020301D7186CE96CC9ACAD5
:1049B0009EC8A2C6AAC4AEC2B2C036DE3ADC3EDA97
:1049C00042D846D672D476D27AD07ECE8010EFF01E
:1049D0006FD12A87B72700800A07938787AABA97DB
:1049E0009C432326F4FA8327C4FA8DC70325C4FA0F
:1049F000EFF06FC72324A4FA832784FA83A7872DB7
:104A00002322F4FA832784FA83A7072D832544FA07
:104A1000614582970100F640E6425643C64336445C
:104A2000264596450646F2566257D2574258B25826
:104A3000225E925E025FF24F2561730020301D718D
:104A400086CE96CC9ACA9EC8A2C6AAC4AEC2B2C02E
:104A500036DE3ADC3EDA42D846D672D476D27AD006
:104A60007ECE8010EFF00FC82A87B72700800A0794
:104A7000938787AABA979C432326F4FA8327C4FA1C
:104A80008DC70325C4FAEFF00FBE2324A4FA8327B1
:104A900084FA83A7072F2322F4FA832784FA83A7B3
:104AA000872E832544FA654582970100F640E64249
:104AB0005643C6433644264596450646F256625747
:104AC000D2574258B258225E925E025FF24F256181
:104AD000730020301D7186CE96CC9ACA9EC8A2C69D
:104AE000AAC4AEC2B2C036DE3ADC3EDA42D846D6FE
:104AF00072D476D27AD07ECE8010EFF0AFBE2A8705
:104B0000B72700800A07938787AABA979C43232672
:104B1000F4FA8327C4FA8DC70325C4FAEFF0AFB4C3
:104B20002324A4FA832784FA83A787302322F4FA64
:104B3000832784FA83A70730832544FA694582973F
:104B40000100F640E6425643C643364426459645A4
:104B50000646F2566257D2574258B258225E925ECB
:104B6000025FF24F2561730020301D7186CE96CC16
:104B70009ACA9EC8A2C6AAC4AEC2B2C036DE3ADC89
:104B80003EDA42D846D672D476D27AD07ECE801023
:104B9000EFF04FB52A87B72700800A07938787AAC7
:104BA000BA979C432326F4FA8327C4FA8DC70325BA
:104BB000C4FAEFF04FAB2324A4FA832784FA83A727
:104BC00007322322F4FA832784FA83A787318325C7
:104BD00044FA6D4582970100F640E6425643C643CB
:104BE0003644264596450646F2566257D2574258F5
:104BF000B258225E925E025FF24F25617300203050
:104C00001D7186CE96CC9ACA9EC8A2C6AAC4AEC250
:104C1000B2C036DE3ADC3EDA42D846D672D476D21C
:104C20007AD07ECE8010EFF0EFAB2A87B7270080D6
:104C30000A07938787AABA979C432326F4FA832707
:104C4000C4FA8DC70325C4FAEFF0EFA12324A4FA18
:104C5000832784FA83A787332322F4FA832784FAED
:104C600083A70733832544FA714582970100F640F4
:104C7000E6425643C6433644264596450646F25616
:104C80006257D2574258B258225E925E025FF24F8C
:104C90002561730020301D7186CE96CC9ACA9EC8BD
:104CA000A2C6AAC4AEC2B2C036DE3ADC3EDA42D8F0
:104CB00046D672D476D27AD07ECE8010EFF08FA214
:104CC0002A87B72700800A07938787AABA979C4349
:104CD0002326F4FA8327C4FA8DC70325C4FAEFF01C
:104CE0008F982324A4FA832784FA83A707352322E5
:104CF000F4FA832784FA83A78734832544FA754519
:104D000082970100F640E6425643C64336442645A4
:104D100096450646F2566257D2574258B258225E1E
:104D2000925E025FF24F2561730020301D7186CEC6
:104D300096CC9ACA9EC8A2C6AAC4AEC2B2C036DE7B
:104D40003ADC3EDA42D846D672D476D27AD07ECEDB
:104D50008010EFF02F992A87B72700800A079387E2
:104D600087AABA979C432326F4FA8327C4FA8DC7EF
:104D70000325C4FAEFF02F8F2324A4FA832784FAA3
:104D800083A787362322F4FA832784FA83A707367A
:104D9000832544FA794582970100F640E64256435E
:104DA000C6433644264596450646F2566257D257C4
:104DB0004258B258225E925E025FF24F2561730044
:104DC00020301D7186CE96CC9ACA9EC8A2C6AAC4AF
:104DD000AEC2B2C036DE3ADC3EDA42D846D672D433
:104DE00076D27AD07ECE8010EFF0CF8F2A87B72789
:104DF00000800A07938787AABA979C432326F4FA70
:104E00008327C4FA8DC70325C4FAEFF0CF85232486
:104E1000A4FA832784FA83A707382322F4FA832786
:104E200084FA83A78737832544FA7D45829701005A
:104E3000F640E6425643C643364426459645064666
:104E4000F2566257D2574258B258225E925E025FC3
:104E5000F24F256173002030011122CE0010F3279C
:104E600050302326F4FE8327C4FE93F7F70323264E
:104E7000F4FE0327C4FE8D476303F7020327C4FE35
:104E80008D4763E2E7020327C4FE8547630BF70003
:104E90000327C4FE89476318F7008D4731A0914767
:104EA00021A0854711A081473E857244056182801B
:104EB000797122D60018232EA4FC232CB4FCF327EE
:104EC00050302326F4FE8327C4FE93F707FC2326E5
:104ED000F4FE832784FD2324F4FE0327C4FD9147B9
:104EE0006305F7040327C4FD914763E8E70603273A
:104EF000C4FD8D4763E3E7060327C4FD8947637B51
:104F0000F7008327C4FDA1C70327C4FD85476309B4
:104F1000F702A1A0832784FE739077308327C4FE15
:104F200093E72700739057300DA8832784FE739072
:104F300077308327C4FE93E737007390573031A84A
:104F4000832784FE93E717007390573039A0832797
:104F500084FEF19B7390573001000100325445618B
:104F60008280011122CE00102326A4FE0327C4FE56
:104F7000FD4763C6E7020327C4FE8D476349F70276
:104F80008327C4FE05473317F700C57793878788C3
:104F9000F98FB337F00093F7F70F81EB09A80327D8
:104FA000C4FE930700086314F700854719A00100A9
:104FB00081473E85724405618280797106D622D48C
:104FC0000018232EA4FC232CB4FC232AC4FC232683
:104FD00004FE8327C4FD99E3FD5749A8032784FDF8
:104FE000FD4763E0E708832784FD13972700B70791
:104FF000012093870754BA979C438287832744FDF7
:1050000081C7EFE0DFEF8DA0EFE0FFF0B1A88327CD
:1050100044FD81C7EFE0BFF181A8EFE0DFF2A9A076
:10502000832744FD81C7EFE09FF33DA8EFE0DFF465
:1050300025A8832744FD81C7EFE0BFF535A0EFE049
:105040001FF71DA0832744FD99C7832784FD3E8554
:10505000EFE0BFF711A8832784FD3E85EFE0BFF99D
:1050600021A0FD572326F4FE8327C4FE3E85B250BF
:10507000225445618280797122D60018232EA4FC27
:10508000232CB4FC232AC4FC8327C4FD2326F4FE6E
:10509000032784FDAD4763C2E702832744FD91CF18
:1050A0000327C4FE832784FD9387870E8A07BA9758
:1050B000032744FD98C3814711A0FD573E85325414
:1050C00045618280797106D622D40018232EA4FC73
:1050D0008327C4FD2322F4FE832744FEDC43DDEF57
:1050E000232604FEB9A0832644FE0327C4FEBA8704
:1050F0008607BA978E07B69723A80708832644FE2B
:105100000327C4FEBA878607BA978E07B69723AAE5
:105110000708832644FE0327C4FEBA878607BA978A
:105120008E07B69723AC07088327C4FE850723267E
:10513000F4FE0327C4FEFD47E3D7E7FA232404FE69
:105140001DA0032744FE832784FE9387870E8A07CA
:10515000BA97374701201307270298C3832784FE95
:1051600085072324F4FE032784FEAD47E3DBE7FC39
:10517000F32750302320F4FEB7070120938747130D
:10518000032704FE6318F700B74701209385073013
:105190000145393B832744FE0547D8C30100B2507F
:1051A000225445618280797106D622D40018232EBC
:1051B000A4FC232CB4FC232AC4FC2328D4FC2326DF
:1051C00004FE8327C4FD2324F4FE032584FD513B04
:1051D000AA8799E3D5575DA2032784FD93070008AA
:1051E0006317F7009539AA8799C3CD5741AA83273A
:1051F00044FDB9CF032784FD93070008631FF70020
:10520000832784FE032744FD23A8E738832784FEF1
:10521000032704FD23ACE73885A2832684FE0327F9
:1052200084FDBA878607BA978E07B697032744FD91
:1052300023A8E708832684FE032784FDBA87860710
:10524000BA978E07B697032704FD23ACE7082DA273
:10525000032784FD930700086301F70C032784FDEF
:105260009307000863C7E710032784FDFD4763C267
:10527000E710032784FDC1476350F70C032784FD23
:10528000AD47630BF70A032784FDAD4763C3E70E01
:10529000032784FD8D476308F700032784FD9D479E
:1052A0006300F704F9A0832684FE032784FDBA87F0
:1052B0008607BA978E07B69737470120130727113D
:1052C00023A8E708832684FE032784FDBA87860780
:1052D000BA978E07B697032704FD23AAE70869A8A3
:1052E000832684FE032784FDBA878607BA978E0734
:1052F000B697374701201307272223A8E7088326FC
:1053000084FE032784FDBA878607BA978E07B6976F
:10531000032704FD23AAE70885A0832784FE3747D7
:1053200001201307C72023A8E738832784FE03271B
:1053300004FD23ACE73889A0832684FE032784FD7F
:10534000BA878607BA978E07B697374701201307A3
:10535000A70323A8E708832684FE032784FDBA87D2
:105360008607BA978E07B697032704FD23AAE70896
:1053700021A0D1572326F4FE8327C4FE3E85B250D8
:10538000225445618280011106CE22CC00102326D2
:10539000A4FE2324B4FE832784FE0546BE85032590
:1053A000C4FE2139AA873E85F240624405618280AD
:1053B000011106CE22CC00102326A4FE2324B4FE25
:1053C000832784FE0146BE850325C4FEFD36AA87D9
:1053D0003E85F240624405618280011106CE22CCF6
:1053E00000102326A4FEEFF03FA7AA873E85F240D7
:1053F000624405618280011106CE22CC0010232672
:10540000A4FE2324B4FE832784FE99EBB747012032
:1054100093850730032584FEEFF09FA981470DA0F7
:10542000032784FE8547631CF700B7870120938517
:1054300007E0032584FEEFF0BFA7814711A0FD57C9
:105440003E85F240624405618280011122CE001047
:105450002326A4FE2324B4FE2322C4FE81473E85D6
:10546000724405618280397122DE80002326A4FC0B
:10547000014581452324A4FE2326B4FEF32500B86C
:105480002322B4FEF32500B02320B4FEF32500B898
:10549000232EB4FC032544FE8325C4FDE310B5FE92
:1054A000832544FE2E8881489317080001478325F1
:1054B00004FE2E868146B365C7002324B4FED58F33
:1054C0002326F4FE032784FE8327C4FE3A85BE8587
:1054D000725421618280797106D622D44AD24ED08C
:1054E0000018232EA4FC8327C4FD81E701498149CC
:1054F00021A80325C4FDEFE07F942326A4FE832783
:10550000C4FE3E89FD87BE894A87CE873A85BE851F
:10551000B25022541259825945618280797106D65F
:1055200022D40018232EA4FC814701482320F4FE36
:10553000232204FF0325C4FDEFE0FF922326A4FEEF
:105540008327C4FE8DC78327C4FE83A7C7132324E4
:10555000F4FE832784FE81CF832784FE9C43F84793
:10556000930704FE3E868545032584FE02970327A4
:1055700004FE832744FE3A85BE85B250225445611D
:105580008280797106D622D426D20018232EA4FC5C
:105590002328B4FC232AC4FCFD572326F4FE03254C
:1055A000C4FDEFE05F8C2324A4FE832784FE8DCF0F
:1055B000832784FE83A7C7132322F4FE832744FE98
:1055C00085C7832744FE9C43A44B0325C4FDEFE01D
:1055D000BF84AA87032604FD832644FDBE850325D8
:1055E00044FE82942326A4FE8327C4FE3E85B25047
:1055F0002254925445618280011122CE001023264C
:10560000A4FEB72700809387C7AA3E857244056130
:105610008280011122CE00102326A4FE9D473E85E4
:10562000724405618280011122CE00102326A4FE5F
:10563000B72700809387C7AA3E85724405618280A0
:10564000011122CE00102326A4FE8D473E85724410
:1056500005618280797106D622D40018232EA4FC1D
:10566000232CB4FCFD572326F4FE0325C4FDEFE0F4
:105670008FFF2324A4FE832784FE9DC7832784FEF7
:1056800083A7C70D2322F4FE832744FE91CF8327EF
:1056900044FE9C43F847930784FD3E868D450325D1
:1056A00044FE02972326A4FE8327C4FE3E85B25003
:1056B000225445618280797106D622D40018232EA7
:1056C000A4FC232CB4FCFD572326F4FE0325C4FDC3
:1056D000EFE06FF92324A4FE832784FE9DC7832770
:1056E00084FE83A7C70D2322F4FE832744FE91CFB7
:1056F000832744FE9C43F847930784FD3E868945F3
:10570000032544FE02972326A4FE8327C4FE3E857C
:10571000B250225445618280797106D622D4001895
:10572000232EA4FC232CB4FC232604FE0325C4FD55
:10573000EFE06FF32324A4FE832784FE9DC7832715
:1057400084FE83A7C70D2322F4FE832744FE91CF56
:10575000832744FE9C43F847930784FD3E8691458A
:10576000032544FE02972326A4FE8327C4FE3E851C
:10577000B250225445618280011106CE22CC001025
:105780002326A4FE0325C4FEEFE0EFEDAA873E85A5
:10579000F240624405618280797106D622D40018F5
:1057A000232EA4FC232CB4FC232AC4FC0325C4FD13
:1057B000EFE06FEB2326A4FE8327C4FE99CB0326DC
:1057C00044FD832584FD0325C4FEEFF0DF8AAA870C
:1057D00011A0FD573E85B2502254456182800111CF
:1057E00022CE00102326A4FE2324B4FE832784FEA9
:1057F00083D7070013F737008D476314F7009147ED
:1058000011A089473E85724405618280797122D654
:105810000018232EA4FCF32710342326F4FE83273C
:10582000C4FE3E85325445618280011122CE0010B3
:105830002326A4FE2324B4FE832784FE739017340A
:1058400081473E85724405618280011106CE22CCDB
:1058500000102326A4FE0325C4FEEFE06FE3AA8711
:105860003E85F240624405618280011122CE001023
:105870002326A4FE0327C4FEB7170080938707469C
:105880006315F700B707000C11A081473E857244ED
:1058900005618280011122CE00102326A4FE032779
:1058A000C4FEB7170080938707466315F700930778
:1058B000500311A081473E85724405618280011129
:1058C00022CE00102326A4FE0327C4FEB7170080B3
:1058D000938707466314F7009D4711A081473E85D3
:1058E000724405618280011122CE00102326A4FE9D
:1058F0002324B4FE832784FE91E7B71700809387A3
:10590000070911A081473E8572440561828001111B
:1059100022CE00102326A4FE2324B4FE832784FE77
:1059200099E3AD4711A081473E85724405618280AD
:10593000011122CE00102326A4FE8327C4FE99E382
:10594000814711A0FD573E857244056182807971BF
:1059500006D622D40018232EA4FC232CB4FC032545
:10596000C4FD21372326A4FE832784FD1397C70097
:105970008327C4FE3E97B70720009107BA979C4340
:105980003E85B250225445618280797106D622D478
:105990000018232EA4FC232CB4FC232AC4FC0325CA
:1059A000C4FDE1352326A4FE832784FD1397C70099
:1059B0008327C4FE3E97B70720009107BA973E871A
:1059C000832744FD1CC30100B250225445618280EC
:1059D000797106D622D40018232EA4FC232CB4FC03
:1059E000232AC4FC0325C4FD49352326A4FE8327AE
:1059F00084FD1397C7008327C4FE3E97B707200096
:105A0000BA973E87832744FD1CC381473E85B25029
:105A1000225445618280797106D622D40018232E43
:105A2000A4FC232CB4FC0325C4FD81352326A4FE4D
:105A3000832784FD1397C7008327C4FE3E97B707CB
:105A40002000BA979C433E85B25022544561828023
:105A5000797106D622D40018232EA4FC232CB4FC82
:105A6000232AC4FC0325C4FD09352326A4FE0325EF
:105A7000C4FDB135AA872324F4FE832784FE85C79D
:105A8000032744FD832784FE637FF700832784FD7B
:105A90008A073E878327C4FEBA973E87832744FD43
:105AA0001CC3814711A0FD573E85B2502254456169
:105AB0008280797106D622D40018232EA4FC232CD0
:105AC000B4FC0325C4FD55332326A4FE832784FD9F
:105AD0008A073E878327C4FEBA979C433E85B2500F
:105AE000225445618280797106D622D40018232E73
:105AF000A4FC232CB4FC232AC4FC2328D4FC0325B7
:105B0000C4FDA5332326A4FE832784FD13977700C5
:105B10008327C4FEBA97032744FD15870A073E97DB
